S0170000456C657661746F722053797374656D2E7372656326
S11300000C942A000C9447000C9447000C9447006D
S11300100C9447000C9447000C9447000C94470040
S11300200C9447000C9447000C9447000C94470030
S11300300C9447000C9447000C9447000C94470020
S11300400C9447000C9447000C9447000C94470010
S11300500C94470011241FBECFE5D4E0DEBFCDBF12
S113006010E0A0E6B0E0EAE1F5E002C005900D92F0
S1130070A238B107D9F720E0A2E8B0E001C01D9290
S1130080A438B207E1F70E9482010C948B020C940D
S1130090000084B3806F84BB84B3807F84BB8FEF04
S11300A085BB08950F931F93CF93DF93A8E6B0E029
S11300B040E050E001E010E085B3806F85BB95B36C
S11300C08C911296980102C0220F331F8A95E2F791
S11300D0822F8095892385BBE0E6F0E0C1E0D0E083
S11300E060E070E003C06F5F7F4F219683B320818F
S11300F0329690E0022E02C0959587950A94E2F715
S113010080FD50C0C80102C0880F991F2A95E2F7EC
S11301109C0183B390E082239323892BD1F3413054
S11301205105C9F024F44115510541F03BC042305A
S11301305105F1F04330510541F134C061157105A9
S1130140E9F161307105E1F162307105D9F1633093
S1130150710541F539C061157105C1F16130710551
S1130160B9F162307105B1F163307105D9F434C06D
S11301706115710599F16130710591F16230710574
S113018089F16330710571F42FC06115710571F146
S11301906130710569F16230710561F16330710597
S11301A069F52AC0C430D1050CF49DCF4F5F5F4F71
S11301B04430510509F080CF81E425C087E323C092
S11301C084E321C081E31FC083E61DC088E31BC014
S11301D085E319C082E317C080E315C089E313C027
S11301E086E311C083E30FC08DE30DC08FE20BC023
S11301F08AE209C08DE207C08BE205C0C430D10594
S11302000CF471CF81E4DF91CF911F910F91089588
S11302108A9A929A000000008BE49DE10197F1F71D
S113022000C00000929808951ABA81B3876081BB18
S11302309098919A0E9408018FEF8ABB9198089533
S1130240CF93C82F0E94140190989198CBBB0E9421
S11302500801CF91089581E00E942001089583EC64
S113026099E00197F1F700C0000081B3876081BB7A
S11302708FEF8ABB82B3887F82BB87E893E10197C3
S1130280F1F700C000000E942B0188E30E942001C6
S113029086E00E94200180E80E9420018CE00E94F8
S11302A020010895CF93C82F0E941401909ACBBBCC
S11302B00E940801CF9108950F931F93CF93DF936A
S11302C08C01C0E0D0E014C00E9452012196C031DC
S11302D0D10521F480EC0E9420010AC0C032D1056E
S11302E039F40E942B0180E80E942001C0E0D0E094
S11302F0F80181918F018111E7CFDF91CF911F9197
S11303000F9108950E9449000E942F010E947602D5
S1130310E12CF12C0E945200082F809182009091D0
S113032083000E94170280E790E00E945C010E9413
S11303302B01003309F46BC08FEC800F893050F728
S113034010E000531109809182009091830080177E
S113035091070CF064C002C00E2D1F2D01969093DE
S1130360830080938200C4E6D0E080918200909163
S113037083000E9417022197C1F780E790E00E9452
S11303805C010E942B018091820090918300801770
S1130390910721F7C4E6D0E0809182009091830018
S11303A00E9417022197C1F73AC01816190644F59E
S11303B00E2D1F2D01979093830080938200C4E635
S11303C0D0E080918200909183000E9417022197CF
S11303D0C1F788E790E00E945C010E942B018091A4
S11303E08200909183008017910721F7C4E6D0E042
S11303F080918200909183000E9417022197C1F797
S113040087EA91E60197F1F700C0000083CF80915D
S113041082009091830099230CF49ECFC6CF8091E3
S11304208200909183000817190724F2E9CFAC01E8
S11304309C01ADECBCEC0E947C0296958795969548
S11304408795969587959C01220F331F880F991FD6
S1130450880F991F880F991F820F931F9A01281BD9
S1130460390BC901C59AC49820FD02C0C09801C0C7
S1130470C09A81FD02C0C19801C0C19A82FD02C028
S1130480C29801C0C29A83FD02C0C39801C0C39A36
S113049089EF90E00197F1F700C000009A01ADECFC
S11304A0BCEC0E947C0296958795969587959695C7
S11304B08795C598C49A80FD02C0C09801C0C09AAF
S11304C081FD02C0C19801C0C19A82FD02C0C298D8
S11304D001C0C29A83FD02C0C39801C0C39A89EFC8
S11304E090E00197F1F700C0000008958FEF87BBFB
S11304F0C59AC49A88BB0895A29FB001B39FC00156
S1130500A39F700D811D1124911DB29F700D811D3B
S10D05101124911D0895F894FFCF03
S113051A00000100020003000400050006000700B1
S113052A77656C636F6D650077656C636F6D6520C5
S105053A0000BB
S9030000FC
